{
  "contractName": "ERC1155Token",
  "abi": [
    {
      "constant": true,
      "inputs": [
        {
          "internalType": "address",
          "name": "owner",
          "type": "address"
        },
        {
          "internalType": "uint256",
          "name": "id",
          "type": "uint256"
        }
      ],
      "name": "balanceOf",
      "outputs": [
        {
          "internalType": "uint256",
          "name": "",
          "type": "uint256"
        }
      ],
      "payable": false,
      "stateMutability": "view",
      "type": "function"
    },
    {
      "constant": false,
      "inputs": [
        {
          "internalType": "address",
          "name": "from",
          "type": "address"
        },
        {
          "internalType": "address",
          "name": "to",
          "type": "address"
        },
        {
          "internalType": "uint256",
          "name": "id",
          "type": "uint256"
        },
        {
          "internalType": "uint256",
          "name": "value",
          "type": "uint256"
        },
        {
          "internalType": "bytes",
          "name": "data",
          "type": "bytes"
        }
      ],
      "name": "safeTransferFrom",
      "outputs": [],
      "payable": false,
      "stateMutability": "nonpayable",
      "type": "function"
    },
    {
      "constant": false,
      "inputs": [
        {
          "internalType": "address",
          "name": "to",
          "type": "address"
        },
        {
          "internalType": "uint256",
          "name": "id",
          "type": "uint256"
        },
        {
          "internalType": "uint256",
          "name": "value",
          "type": "uint256"
        },
        {
          "internalType": "bytes",
          "name": "data",
          "type": "bytes"
        }
      ],
      "name": "mint",
      "outputs": [],
      "payable": false,
      "stateMutability": "nonpayable",
      "type": "function"
    }
  ],
  "bytecode": "0x608060405234801561001057600080fd5b50610b96806100206000396000f3fe608060405234801561001057600080fd5b50600436106100405760003560e01c8062fdd58e14610045578063731133e9146100a7578063f242432a14610154575b600080fd5b6100916004803603604081101561005b57600080fd5b81019080803573ffffffffffffffffffffffffffffffffffffffff16906020019092919080359060200190929190505050610221565b6040518082815260200191505060405180910390f35b610152600480360360808110156100bd57600080fd5b81019080803573ffffffffffffffffffffffffffffffffffffffff16906020019092919080359060200190929190803590602001909291908035906020019064010000000081111561010e57600080fd5b82018360208201111561012057600080fd5b8035906020019184600183028401116401000000008311171561014257600080fd5b9091929391929390505050610300565b005b61021f600480360360a081101561016a57600080fd5b81019080803573ffffffffffffffffffffffffffffffffffffffff169060200190929190803573ffffffffffffffffffffffffffffffffffffffff1690602001909291908035906020019092919080359060200190929190803590602001906401000000008111156101db57600080fd5b8201836020820111156101ed57600080fd5b8035906020019184600183028401116401000000008311171561020f57600080fd5b9091929391929390505050610495565b005b60008073ffffffffffffffffffffffffffffffffffffffff168373ffffffffffffffffffffffffffffffffffffffff1614156102a8576040517f08c379a000000000000000000000000000000000000000000000000000000000815260040180806020018281038252602b815260200180610a85602b913960400191505060405180910390fd5b60008083815260200190815260200160002060008473ffffffffffffffffffffffffffffffffffffffff1673ffffffffffffffffffffffffffffffffffffffff16815260200190815260200160002054905092915050565b600073ffffffffffffffffffffffffffffffffffffffff168573ffffffffffffffffffffffffffffffffffffffff161415610386576040517f08c379a0000000000000000000000000000000000000000000000000000000008152600401808060200182810382526021815260200180610b106021913960400191505060405180910390fd5b6103e860008086815260200190815260200160002060008773ffffffffffffffffffffffffffffffffffffffff1673ffffffffffffffffffffffffffffffffffffffff16815260200190815260200160002054846107fb90919063ffffffff16565b60008086815260200190815260200160002060008773ffffffffffffffffffffffffffffffffffffffff1673ffffffffffffffffffffffffffffffffffffffff1681526020019081526020016000208190555061048e33600087878787878080601f016020809104026020016040519081016040528093929190818152602001838380828437600081840152601f19601f8201169050808301925050505050505061081a565b5050505050565b600073ffffffffffffffffffffffffffffffffffffffff168573ffffffffffffffffffffffffffffffffffffffff16141561051b576040517f08c379a0000000000000000000000000000000000000000000000000000000008152600401808060200182810382526028815260200180610ab06028913960400191505060405180910390fd5b3373ffffffffffffffffffffffffffffffffffffffff168673ffffffffffffffffffffffffffffffffffffffff1614806105e2575060011515600160008873ffffffffffffffffffffffffffffffffffffffff1673ffffffffffffffffffffffffffffffffffffffff16815260200190815260200160002060003373ffffffffffffffffffffffffffffffffffffffff1673ffffffffffffffffffffffffffffffffffffffff16815260200190815260200160002060009054906101000a900460ff161515145b610637576040517f08c379a0000000000000000000000000000000000000000000000000000000008152600401808060200182810382526038815260200180610ad86038913960400191505060405180910390fd5b6106998360008087815260200190815260200160002060008973ffffffffffffffffffffffffffffffffffffffff1673ffffffffffffffffffffffffffffffffffffffff16815260200190815260200160002054610a5190919063ffffffff16565b60008086815260200190815260200160002060008873ffffffffffffffffffffffffffffffffffffffff1673ffffffffffffffffffffffffffffffffffffffff1681526020019081526020016000208190555061074e60008086815260200190815260200160002060008773ffffffffffffffffffffffffffffffffffffffff1673ffffffffffffffffffffffffffffffffffffffff16815260200190815260200160002054846107fb90919063ffffffff16565b60008086815260200190815260200160002060008773ffffffffffffffffffffffffffffffffffffffff1673ffffffffffffffffffffffffffffffffffffffff168152602001908152602001600020819055506107f3338787878787878080601f016020809104026020016040519081016040528093929190818152602001838380828437600081840152601f19601f8201169050808301925050505050505061081a565b505050505050565b60008082840190508381101561081057600080fd5b8091505092915050565b61082384610a71565b15610a49578373ffffffffffffffffffffffffffffffffffffffff1663f23a6e61905060e01b7bffffffffffffffffffffffffffffffffffffffffffffffffffffffff19168473ffffffffffffffffffffffffffffffffffffffff1663f23a6e6188888787876040518663ffffffff1660e01b8152600401808673ffffffffffffffffffffffffffffffffffffffff1673ffffffffffffffffffffffffffffffffffffffff1681526020018573ffffffffffffffffffffffffffffffffffffffff1673ffffffffffffffffffffffffffffffffffffffff16815260200184815260200183815260200180602001828103825283818151815260200191508051906020019080838360005b8381101561094857808201518184015260208101905061092d565b50505050905090810190601f1680156109755780820380516001836020036101000a031916815260200191505b509650505050505050602060405180830381600087803b15801561099857600080fd5b505af11580156109ac573d6000803e3d6000fd5b505050506040513d60208110156109c257600080fd5b81019080805190602001909291905050507bffffffffffffffffffffffffffffffffffffffffffffffffffffffff191614610a48576040517f08c379a0000000000000000000000000000000000000000000000000000000008152600401808060200182810382526031815260200180610b316031913960400191505060405180910390fd5b5b505050505050565b600082821115610a6057600080fd5b600082840390508091505092915050565b600080823b90506000811191505091905056fe455243313135353a2062616c616e636520717565727920666f7220746865207a65726f2061646472657373455243313135353a207461726765742061646472657373206d757374206265206e6f6e2d7a65726f455243313135353a206e656564206f70657261746f7220617070726f76616c20666f7220337264207061727479207472616e73666572732e455243313135353a206d696e7420746f20746865207a65726f2061646472657373455243313135353a20676f7420756e6b6e6f776e2076616c75652066726f6d206f6e455243313135355265636569766564a265627a7a723158204cf71cb7fc83304a00f672cdc8ef550fff5add3511f1c46b8d74adbcc93ef93664736f6c634300050e0032",
  "source": "pragma solidity >=0.5.0 <0.7.0;\n\nimport \"../interfaces/ERC1155TokenReceiver.sol\";\nimport \"../external/GnosisSafeMath.sol\";\n\ncontract ERC1155Token {\n\n    using GnosisSafeMath for uint256;\n\n    // Mapping from token ID to owner balances\n    mapping (uint256 => mapping(address => uint256)) private _balances;\n\n    // Mapping from owner to operator approvals\n    mapping (address => mapping(address => bool)) private _operatorApprovals;\n\n    /**\n        @dev Get the specified address' balance for token with specified ID.\n        @param owner The address of the token holder\n        @param id ID of the token\n        @return The owner's balance of the token type requested\n     */\n    function balanceOf(address owner, uint256 id) public view returns (uint256) {\n        require(owner != address(0), \"ERC1155: balance query for the zero address\");\n        return _balances[id][owner];\n    }\n\n    /**\n        @dev Transfers `value` amount of an `id` from the `from` address to the `to` address specified.\n        Caller must be approved to manage the tokens being transferred out of the `from` account.\n        If `to` is a smart contract, will call `onERC1155Received` on `to` and act appropriately.\n        @param from Source address\n        @param to Target address\n        @param id ID of the token type\n        @param value Transfer amount\n        @param data Data forwarded to `onERC1155Received` if `to` is a contract receiver\n    */\n    function safeTransferFrom(\n        address from,\n        address to,\n        uint256 id,\n        uint256 value,\n        bytes calldata data\n    )\n        external\n    {\n        require(to != address(0), \"ERC1155: target address must be non-zero\");\n        require(\n            from == msg.sender || _operatorApprovals[from][msg.sender] == true,\n            \"ERC1155: need operator approval for 3rd party transfers.\"\n        );\n\n        _balances[id][from] = _balances[id][from].sub(value);\n        _balances[id][to] = value.add(_balances[id][to]);\n\n        _doSafeTransferAcceptanceCheck(msg.sender, from, to, id, value, data);\n    }\n\n    /**\n     * @dev Test function to mint an amount of a token with the given ID\n     * @param to The address that will own the minted token\n     * @param id ID of the token to be minted\n     * @param value Amount of the token to be minted\n     * @param data Data forwarded to `onERC1155Received` if `to` is a contract receiver\n     */\n    function mint(address to, uint256 id, uint256 value, bytes calldata data) external {\n        require(to != address(0), \"ERC1155: mint to the zero address\");\n\n        _balances[id][to] = value.add(_balances[id][to]);\n\n        _doSafeTransferAcceptanceCheck(msg.sender, address(0), to, id, value, data);\n    }\n\n    function isContract(address account) internal view returns (bool) {\n        // This method relies in extcodesize, which returns 0 for contracts in\n        // construction, since the code is only stored at the end of the\n        // constructor execution.\n\n        uint256 size;\n        // solium-disable-next-line security/no-inline-assembly\n        assembly { size := extcodesize(account) }\n        return size > 0;\n    }\n\n    function _doSafeTransferAcceptanceCheck(\n        address operator,\n        address from,\n        address to,\n        uint256 id,\n        uint256 value,\n        bytes memory data\n    )\n        internal\n    {\n        if(isContract(to)) {\n            require(\n                ERC1155TokenReceiver(to).onERC1155Received(operator, from, id, value, data) ==\n                    ERC1155TokenReceiver(to).onERC1155Received.selector,\n                \"ERC1155: got unknown value from onERC1155Received\"\n            );\n        }\n    }\n}",
  "sourcePath": "C:\\Users\\rymou\\IdeaProjects\\unicef\\ethereum-meta-transactions\\react-meta-transactions\\examples\\MutiSig_v1.1.1_dev2\\contracts\\mocks\\ERC1155Token.sol",
  "compiler": {
    "name": "solc",
    "version": "0.5.14+commit.01f1aaa4.Emscripten.clang"
  },
  "schemaVersion": "3.1.0",
  "updatedAt": "2021-04-29T12:59:15.392Z",
  "devdoc": {
    "methods": {
      "balanceOf(address,uint256)": {
        "details": "Get the specified address' balance for token with specified ID.",
        "params": {
          "id": "ID of the token",
          "owner": "The address of the token holder"
        },
        "return": "The owner's balance of the token type requested"
      },
      "mint(address,uint256,uint256,bytes)": {
        "details": "Test function to mint an amount of a token with the given ID",
        "params": {
          "data": "Data forwarded to `onERC1155Received` if `to` is a contract receiver",
          "id": "ID of the token to be minted",
          "to": "The address that will own the minted token",
          "value": "Amount of the token to be minted"
        }
      },
      "safeTransferFrom(address,address,uint256,uint256,bytes)": {
        "details": "Transfers `value` amount of an `id` from the `from` address to the `to` address specified. Caller must be approved to manage the tokens being transferred out of the `from` account. If `to` is a smart contract, will call `onERC1155Received` on `to` and act appropriately.",
        "params": {
          "data": "Data forwarded to `onERC1155Received` if `to` is a contract receiver",
          "from": "Source address",
          "id": "ID of the token type",
          "to": "Target address",
          "value": "Transfer amount"
        }
      }
    }
  },
  "userdoc": {
    "methods": {}
  }
}