{
  "contractName": "Verifier",
  "abi": [
    {
      "inputs": [],
      "payable": false,
      "stateMutability": "nonpayable",
      "type": "constructor"
    },
    {
      "anonymous": false,
      "inputs": [
        {
          "indexed": false,
          "internalType": "bytes",
          "name": "sig",
          "type": "bytes"
        },
        {
          "indexed": false,
          "internalType": "address",
          "name": "signer",
          "type": "address"
        },
        {
          "indexed": false,
          "internalType": "address",
          "name": "destination",
          "type": "address"
        },
        {
          "indexed": false,
          "internalType": "uint256",
          "name": "value",
          "type": "uint256"
        },
        {
          "indexed": false,
          "internalType": "bytes",
          "name": "data",
          "type": "bytes"
        },
        {
          "indexed": false,
          "internalType": "bytes32",
          "name": "_hash",
          "type": "bytes32"
        }
      ],
      "name": "Forwarded",
      "type": "event"
    },
    {
      "anonymous": false,
      "inputs": [
        {
          "indexed": false,
          "internalType": "address",
          "name": "_account",
          "type": "address"
        },
        {
          "indexed": false,
          "internalType": "bool",
          "name": "_value",
          "type": "bool"
        }
      ],
      "name": "UpdateWhitelist",
      "type": "event"
    },
    {
      "constant": true,
      "inputs": [
        {
          "internalType": "address",
          "name": "",
          "type": "address"
        }
      ],
      "name": "nonce",
      "outputs": [
        {
          "internalType": "uint256",
          "name": "",
          "type": "uint256"
        }
      ],
      "payable": false,
      "stateMutability": "view",
      "type": "function"
    },
    {
      "constant": true,
      "inputs": [
        {
          "internalType": "address",
          "name": "",
          "type": "address"
        }
      ],
      "name": "whitelist",
      "outputs": [
        {
          "internalType": "bool",
          "name": "",
          "type": "bool"
        }
      ],
      "payable": false,
      "stateMutability": "view",
      "type": "function"
    },
    {
      "constant": false,
      "inputs": [
        {
          "internalType": "address",
          "name": "_account",
          "type": "address"
        },
        {
          "internalType": "bool",
          "name": "_value",
          "type": "bool"
        }
      ],
      "name": "updateWhitelist",
      "outputs": [
        {
          "internalType": "bool",
          "name": "",
          "type": "bool"
        }
      ],
      "payable": false,
      "stateMutability": "nonpayable",
      "type": "function"
    },
    {
      "constant": true,
      "inputs": [
        {
          "internalType": "address",
          "name": "signer",
          "type": "address"
        },
        {
          "internalType": "address",
          "name": "destination",
          "type": "address"
        },
        {
          "internalType": "uint256",
          "name": "value",
          "type": "uint256"
        },
        {
          "internalType": "bytes",
          "name": "data",
          "type": "bytes"
        }
      ],
      "name": "getHash",
      "outputs": [
        {
          "internalType": "bytes32",
          "name": "",
          "type": "bytes32"
        }
      ],
      "payable": false,
      "stateMutability": "view",
      "type": "function"
    },
    {
      "constant": false,
      "inputs": [
        {
          "internalType": "bytes",
          "name": "sig",
          "type": "bytes"
        },
        {
          "internalType": "address",
          "name": "signer",
          "type": "address"
        },
        {
          "internalType": "address",
          "name": "destination",
          "type": "address"
        },
        {
          "internalType": "uint256",
          "name": "value",
          "type": "uint256"
        },
        {
          "internalType": "bytes",
          "name": "data",
          "type": "bytes"
        }
      ],
      "name": "forward",
      "outputs": [],
      "payable": false,
      "stateMutability": "nonpayable",
      "type": "function"
    }
  ],
  "bytecode": "0x608060405234801561001057600080fd5b5060018060003373ffffffffffffffffffffffffffffffffffffffff1673ffffffffffffffffffffffffffffffffffffffff16815260200190815260200160002060006101000a81548160ff021916908315150217905550610cd4806100776000396000f3fe608060405234801561001057600080fd5b50600436106100575760003560e01c80630d392cd91461005c57806370ae92d2146100c457806376e4b67a1461011c5780637f9ec70b146102b85780639b19251a146103d1575b600080fd5b6100aa6004803603604081101561007257600080fd5b81019080803573ffffffffffffffffffffffffffffffffffffffff16906020019092919080351515906020019092919050505061042d565b604051808215151515815260200191505060405180910390f35b610106600480360360208110156100da57600080fd5b81019080803573ffffffffffffffffffffffffffffffffffffffff1690602001909291905050506105a1565b6040518082815260200191505060405180910390f35b6102b6600480360360a081101561013257600080fd5b810190808035906020019064010000000081111561014f57600080fd5b82018360208201111561016157600080fd5b8035906020019184600183028401116401000000008311171561018357600080fd5b91908080601f016020809104026020016040519081016040528093929190818152602001838380828437600081840152601f19601f820116905080830192505050505050509192919290803573ffffffffffffffffffffffffffffffffffffffff169060200190929190803573ffffffffffffffffffffffffffffffffffffffff169060200190929190803590602001909291908035906020019064010000000081111561023057600080fd5b82018360208201111561024257600080fd5b8035906020019184600183028401116401000000008311171561026457600080fd5b91908080601f016020809104026020016040519081016040528093929190818152602001838380828437600081840152601f19601f8201169050808301925050505050505091929192905050506105b9565b005b6103bb600480360360808110156102ce57600080fd5b81019080803573ffffffffffffffffffffffffffffffffffffffff169060200190929190803573ffffffffffffffffffffffffffffffffffffffff169060200190929190803590602001909291908035906020019064010000000081111561033557600080fd5b82018360208201111561034757600080fd5b8035906020019184600183028401116401000000008311171561036957600080fd5b91908080601f016020809104026020016040519081016040528093929190818152602001838380828437600081840152601f19601f82011690508083019250505050505050919291929050505061091f565b6040518082815260200191505060405180910390f35b610413600480360360208110156103e757600080fd5b81019080803573ffffffffffffffffffffffffffffffffffffffff169060200190929190505050610a90565b604051808215151515815260200191505060405180910390f35b6000600160003373ffffffffffffffffffffffffffffffffffffffff1673ffffffffffffffffffffffffffffffffffffffff16815260200190815260200160002060009054906101000a900460ff166104d1576040517f08c379a0000000000000000000000000000000000000000000000000000000008152600401808060200182810382526031815260200180610c3c6031913960400191505060405180910390fd5b81600160008573ffffffffffffffffffffffffffffffffffffffff1673ffffffffffffffffffffffffffffffffffffffff16815260200190815260200160002060006101000a81548160ff0219169083151502179055507f08b2c0469ecd1d7a21d7e1492f0fc75fc7e8e0fa4fdf4275949c90875f5ebdf58383604051808373ffffffffffffffffffffffffffffffffffffffff1673ffffffffffffffffffffffffffffffffffffffff168152602001821515151581526020019250505060405180910390a16001905092915050565b60006020528060005260406000206000915090505481565b600160003373ffffffffffffffffffffffffffffffffffffffff1673ffffffffffffffffffffffffffffffffffffffff16815260200190815260200160002060009054906101000a900460ff1661065b576040517f08c379a0000000000000000000000000000000000000000000000000000000008152600401808060200182810382526031815260200180610c3c6031913960400191505060405180910390fd5b60006106698585858561091f565b90506000808673ffffffffffffffffffffffffffffffffffffffff1673ffffffffffffffffffffffffffffffffffffffff168152602001908152602001600020600081548092919060010191905055506106c4858288610ab0565b610719576040517f08c379a0000000000000000000000000000000000000000000000000000000008152600401808060200182810382526033815260200180610c6d6033913960400191505060405180910390fd5b610724848484610af3565b610796576040517f08c379a00000000000000000000000000000000000000000000000000000000081526004018080602001828103825260208152602001807f56657269666965723a3a70726f626c656d20696e206578656375746543616c6c81525060200191505060405180910390fd5b7fa44809876be7b0e3c1599dc7b3a9ef62dd9c43c0a951789d181c29e34a3575ce86868686868660405180806020018773ffffffffffffffffffffffffffffffffffffffff1673ffffffffffffffffffffffffffffffffffffffff1681526020018673ffffffffffffffffffffffffffffffffffffffff1673ffffffffffffffffffffffffffffffffffffffff16815260200185815260200180602001848152602001838103835289818151815260200191508051906020019080838360005b83811015610871578082015181840152602081019050610856565b50505050905090810190601f16801561089e5780820380516001836020036101000a031916815260200191505b50838103825285818151815260200191508051906020019080838360005b838110156108d75780820151818401526020810190506108bc565b50505050905090810190601f1680156109045780820380516001836020036101000a031916815260200191505b509850505050505050505060405180910390a1505050505050565b600030858585856000808b73ffffffffffffffffffffffffffffffffffffffff1673ffffffffffffffffffffffffffffffffffffffff16815260200190815260200160002054604051602001808773ffffffffffffffffffffffffffffffffffffffff1673ffffffffffffffffffffffffffffffffffffffff1660601b81526014018673ffffffffffffffffffffffffffffffffffffffff1673ffffffffffffffffffffffffffffffffffffffff1660601b81526014018573ffffffffffffffffffffffffffffffffffffffff1673ffffffffffffffffffffffffffffffffffffffff1660601b815260140184815260200183805190602001908083835b60208310610a405780518252602082019150602081019050602083039250610a1d565b6001836020036101000a0380198251168184511680821785525050505050509050018281526020019650505050505050604051602081830303815290604052805190602001209050949350505050565b60016020528060005260406000206000915054906101000a900460ff1681565b60008373ffffffffffffffffffffffffffffffffffffffff16610ad38484610b0b565b73ffffffffffffffffffffffffffffffffffffffff161490509392505050565b600080600083516020850186885af190509392505050565b6000806000806041855114610b265760009350505050610c35565b6020850151925060408501519150606085015160001a9050601b8160ff161015610b5157601b810190505b601b8160ff1614158015610b695750601c8160ff1614155b15610b7a5760009350505050610c35565b60018660405160200180807f19457468657265756d205369676e6564204d6573736167653a0a333200000000815250601c018281526020019150506040516020818303038152906040528051906020012082858560405160008152602001604052604051808581526020018460ff1660ff1681526020018381526020018281526020019450505050506020604051602081039080840390855afa158015610c25573d6000803e3d6000fd5b5050506020604051035193505050505b9291505056fe56657269666965723a3a75706461746557686974656c697374204163636f756e74204e6f742057686974656c697374656456657269666965723a3a666f72776172646564206d657373616765206973206e6f74207369676e656420636f72726563746c79a265627a7a7231582056f578834d31ce650f4e09bed802e07ceb73afbe1f72c420cdcb5e82c6d26c1764736f6c634300050e0032",
  "source": "pragma solidity >=0.5.0 <0.9.0;\r\n\r\n\r\n// this Verifier contract was heavily inspired by https://github.com/austintgriffith/bouncer-proxy/blob/master/BouncerProxy/BouncerProxy.sol\r\n\r\ncontract Verifier {\r\n    //whitelist the deployer so they can whitelist others\r\n    constructor() public {\r\n        whitelist[msg.sender] = true;\r\n    }\r\n    //to avoid replay\r\n    mapping(address => uint) public nonce;\r\n    // allow for third party metatx account to make transactions through this\r\n    // contract like an identity but make sure the owner has whitelisted the tx\r\n    mapping(address => bool) public whitelist;\r\n    function updateWhitelist(address _account, bool _value) public returns(bool) {\r\n        require(whitelist[msg.sender],\"Verifier::updateWhitelist Account Not Whitelisted\");\r\n        whitelist[_account] = _value;\r\n        emit UpdateWhitelist(_account,_value);\r\n        return true;\r\n    }\r\n    event UpdateWhitelist(address _account, bool _value);\r\n    // copied from https://github.com/uport-project/uport-identity/blob/develop/contracts/Proxy.sol\r\n\r\n    function getHash(address signer, address destination, uint value, bytes memory data) public view returns(bytes32){\r\n        return keccak256(abi.encodePacked(address(this), signer, destination, value, data, nonce[signer]));\r\n    }\r\n\r\n\r\n    // original forward function copied from https://github.com/uport-project/uport-identity/blob/develop/contracts/Proxy.sol\r\n    function forward(bytes memory sig, address signer, address destination, uint value, bytes memory data) public {\r\n        require(whitelist[msg.sender],\"Verifier::updateWhitelist Account Not Whitelisted\");\r\n        //the hash contains all of the information about the meta transaction to be called\r\n        bytes32 _hash = getHash(signer, destination, value, data);\r\n        //increment the hash so this tx can't run again\r\n        nonce[signer]++;\r\n        //this makes sure signer signed correctly AND signer is a valid bouncer\r\n        require(MessageIsSigned(signer,_hash,sig),\"Verifier::forwarded message is not signed correctly\");\r\n        //make sure the signer pays in whatever token (or ether) the sender and signer agreed to\r\n        // or skip this if the sender is incentivized in other ways and there is no need for a token\r\n        //execute the transaction with all the given parameters\r\n        require(executeCall(destination, value, data), \"Verifier::problem in executeCall\");\r\n        emit Forwarded(sig, signer, destination, value, data, _hash);\r\n    }\r\n    // when some frontends see that a tx is made from a bouncerproxy, they may want to parse through these events to find out who the signer was etc\r\n    event Forwarded (bytes sig, address signer, address destination, uint value, bytes data, bytes32 _hash);\r\n\r\n    // copied from https://github.com/uport-project/uport-identity/blob/develop/contracts/Proxy.sol\r\n    // which was copied from GnosisSafe\r\n    // https://github.com/gnosis/gnosis-safe-contracts/blob/master/contracts/GnosisSafe.sol\r\n    function executeCall(address to, uint256 value, bytes memory data) internal returns (bool success) {\r\n        assembly {\r\n            success := call(gas(), to, value, add(data, 0x20), mload(data), 0, 0)\r\n        }\r\n    }\r\n\r\n    //borrowed from OpenZeppelin's ESDA stuff:\r\n    //https://github.com/OpenZeppelin/openzeppelin-solidity/blob/master/contracts/cryptography/ECDSA.sol\r\n    function recoverSigner(bytes32 _hash, bytes memory _signature) internal pure returns (address){\r\n        bytes32 r;\r\n        bytes32 s;\r\n        uint8 v;\r\n        // Check the signature length\r\n        if (_signature.length != 65) {\r\n            return address(0);\r\n        }\r\n        // Divide the signature in r, s and v variables\r\n        // ecrecover takes the signature parameters, and the only way to get them\r\n        // currently is to use assembly.\r\n        // solium-disable-next-line security/no-inline-assembly\r\n        assembly {\r\n            r := mload(add(_signature, 32))\r\n            s := mload(add(_signature, 64))\r\n            v := byte(0, mload(add(_signature, 96)))\r\n        }\r\n        // Version of signature should be 27 or 28, but 0 and 1 are also possible versions\r\n        if (v < 27) {\r\n            v += 27;\r\n        }\r\n        // If the version is correct return the signer address\r\n        if (v != 27 && v != 28) {\r\n            return address(0);\r\n        } else {\r\n            // solium-disable-next-line arg-overflow\r\n            return ecrecover(keccak256(\r\n                    abi.encodePacked(\"\\x19Ethereum Signed Message:\\n32\", _hash)\r\n                ), v, r, s);\r\n        }\r\n    }\r\n\r\n    function MessageIsSigned(address signer, bytes32 _hash, bytes memory _signature) internal pure returns (bool){\r\n        return recoverSigner(_hash,_signature) == signer ;\r\n    }\r\n}\r\n",
  "sourcePath": "C:\\Users\\rymou\\IdeaProjects\\unicef\\ethereum-meta-transactions\\react-meta-transactions\\examples\\MutiSig_v1.1.1_dev2\\contracts\\Verifier.sol",
  "compiler": {
    "name": "solc",
    "version": "0.5.14+commit.01f1aaa4.Emscripten.clang"
  },
  "schemaVersion": "3.1.0",
  "updatedAt": "2021-04-29T12:59:15.355Z",
  "devdoc": {
    "methods": {}
  },
  "userdoc": {
    "methods": {}
  }
}