{
  "contractName": "VerifierV2",
  "abi": [
    {
      "constant": true,
      "inputs": [
        {
          "internalType": "bytes32",
          "name": "msgHash",
          "type": "bytes32"
        },
        {
          "internalType": "uint8",
          "name": "v",
          "type": "uint8"
        },
        {
          "internalType": "bytes32",
          "name": "r",
          "type": "bytes32"
        },
        {
          "internalType": "bytes32",
          "name": "s",
          "type": "bytes32"
        }
      ],
      "name": "recoverAddr",
      "outputs": [
        {
          "internalType": "address",
          "name": "",
          "type": "address"
        }
      ],
      "payable": false,
      "stateMutability": "pure",
      "type": "function"
    },
    {
      "constant": true,
      "inputs": [
        {
          "internalType": "address",
          "name": "_addr",
          "type": "address"
        },
        {
          "internalType": "bytes32",
          "name": "msgHash",
          "type": "bytes32"
        },
        {
          "internalType": "uint8",
          "name": "v",
          "type": "uint8"
        },
        {
          "internalType": "bytes32",
          "name": "r",
          "type": "bytes32"
        },
        {
          "internalType": "bytes32",
          "name": "s",
          "type": "bytes32"
        }
      ],
      "name": "isSigned",
      "outputs": [
        {
          "internalType": "bool",
          "name": "",
          "type": "bool"
        }
      ],
      "payable": false,
      "stateMutability": "pure",
      "type": "function"
    }
  ],
  "bytecode": "0x608060405234801561001057600080fd5b5061029b806100206000396000f3fe608060405234801561001057600080fd5b50600436106100365760003560e01c80638677ebe81461003b578063e5df669f146100c2575b600080fd5b6100a8600480360360a081101561005157600080fd5b81019080803573ffffffffffffffffffffffffffffffffffffffff16906020019092919080359060200190929190803560ff1690602001909291908035906020019092919080359060200190929190505050610151565b604051808215151515815260200191505060405180910390f35b61010f600480360360808110156100d857600080fd5b8101908080359060200190929190803560ff16906020019092919080359060200190929190803590602001909291905050506101f3565b604051808273ffffffffffffffffffffffffffffffffffffffff1673ffffffffffffffffffffffffffffffffffffffff16815260200191505060405180910390f35b60008573ffffffffffffffffffffffffffffffffffffffff1660018686868660405160008152602001604052604051808581526020018460ff1660ff1681526020018381526020018281526020019450505050506020604051602081039080840390855afa1580156101c7573d6000803e3d6000fd5b5050506020604051035173ffffffffffffffffffffffffffffffffffffffff1614905095945050505050565b600060018585858560405160008152602001604052604051808581526020018460ff1660ff1681526020018381526020018281526020019450505050506020604051602081039080840390855afa158015610252573d6000803e3d6000fd5b50505060206040510351905094935050505056fea265627a7a7231582014d4ce72434723ce68606205c4b2f14e240dbda61f5397f7090ce2aee83c915a64736f6c63430005100032",
  "source": "pragma solidity >=0.4.22 <0.9.0;\r\n\r\ncontract VerifierV2 {\r\n    function recoverAddr(bytes32 msgHash, uint8 v, bytes32 r, bytes32 s) public pure returns (address) {\r\n        return ecrecover(msgHash, v, r, s);\r\n    }\r\n\r\n    function isSigned(address _addr, bytes32 msgHash, uint8 v, bytes32 r, bytes32 s) public pure returns (bool) {\r\n        return ecrecover(msgHash, v, r, s) == _addr;\r\n    }\r\n}\r\n",
  "sourcePath": "C:\\Users\\rymou\\IdeaProjects\\unicef\\ethereum-meta-transactions\\web3-meta-transactions\\contracts\\VerifierV2.sol",
  "compiler": {
    "name": "solc",
    "version": "0.5.16+commit.9c3226ce.Emscripten.clang"
  },
  "schemaVersion": "3.1.0",
  "updatedAt": "2021-03-11T22:15:22.594Z",
  "networkType": "ethereum",
  "devdoc": {
    "methods": {}
  },
  "userdoc": {
    "methods": {}
  }
}