{
  "_format": "hh-sol-artifact-1",
  "contractName": "Verifier",
  "sourceName": "contracts/Verifier.sol",
  "abi": [
    {
      "inputs": [],
      "stateMutability": "nonpayable",
      "type": "constructor"
    },
    {
      "anonymous": false,
      "inputs": [
        {
          "indexed": false,
          "internalType": "bytes",
          "name": "sig",
          "type": "bytes"
        },
        {
          "indexed": false,
          "internalType": "address",
          "name": "signer",
          "type": "address"
        },
        {
          "indexed": false,
          "internalType": "address",
          "name": "destination",
          "type": "address"
        },
        {
          "indexed": false,
          "internalType": "uint256",
          "name": "value",
          "type": "uint256"
        },
        {
          "indexed": false,
          "internalType": "bytes",
          "name": "data",
          "type": "bytes"
        },
        {
          "indexed": false,
          "internalType": "bytes32",
          "name": "_hash",
          "type": "bytes32"
        }
      ],
      "name": "Forwarded",
      "type": "event"
    },
    {
      "anonymous": false,
      "inputs": [
        {
          "indexed": false,
          "internalType": "address",
          "name": "_account",
          "type": "address"
        },
        {
          "indexed": false,
          "internalType": "bool",
          "name": "_value",
          "type": "bool"
        }
      ],
      "name": "UpdateCallWhitelist",
      "type": "event"
    },
    {
      "anonymous": false,
      "inputs": [
        {
          "indexed": false,
          "internalType": "address",
          "name": "_account",
          "type": "address"
        },
        {
          "indexed": false,
          "internalType": "bool",
          "name": "_value",
          "type": "bool"
        }
      ],
      "name": "UpdateOwnerWhitelist",
      "type": "event"
    },
    {
      "inputs": [
        {
          "internalType": "address",
          "name": "",
          "type": "address"
        }
      ],
      "name": "callWhitelist",
      "outputs": [
        {
          "internalType": "bool",
          "name": "",
          "type": "bool"
        }
      ],
      "stateMutability": "view",
      "type": "function"
    },
    {
      "inputs": [
        {
          "internalType": "bytes",
          "name": "sig",
          "type": "bytes"
        },
        {
          "internalType": "address",
          "name": "signer",
          "type": "address"
        },
        {
          "internalType": "address",
          "name": "destination",
          "type": "address"
        },
        {
          "internalType": "uint256",
          "name": "value",
          "type": "uint256"
        },
        {
          "internalType": "bytes",
          "name": "data",
          "type": "bytes"
        }
      ],
      "name": "forward",
      "outputs": [],
      "stateMutability": "nonpayable",
      "type": "function"
    },
    {
      "inputs": [
        {
          "internalType": "address",
          "name": "signer",
          "type": "address"
        },
        {
          "internalType": "address",
          "name": "destination",
          "type": "address"
        },
        {
          "internalType": "uint256",
          "name": "value",
          "type": "uint256"
        },
        {
          "internalType": "bytes",
          "name": "data",
          "type": "bytes"
        }
      ],
      "name": "getHash",
      "outputs": [
        {
          "internalType": "bytes32",
          "name": "",
          "type": "bytes32"
        }
      ],
      "stateMutability": "view",
      "type": "function"
    },
    {
      "inputs": [
        {
          "internalType": "address",
          "name": "",
          "type": "address"
        }
      ],
      "name": "nonce",
      "outputs": [
        {
          "internalType": "uint256",
          "name": "",
          "type": "uint256"
        }
      ],
      "stateMutability": "view",
      "type": "function"
    },
    {
      "inputs": [
        {
          "internalType": "address",
          "name": "",
          "type": "address"
        }
      ],
      "name": "ownerWhitelist",
      "outputs": [
        {
          "internalType": "bool",
          "name": "",
          "type": "bool"
        }
      ],
      "stateMutability": "view",
      "type": "function"
    },
    {
      "inputs": [
        {
          "internalType": "address",
          "name": "_account",
          "type": "address"
        },
        {
          "internalType": "bool",
          "name": "_value",
          "type": "bool"
        }
      ],
      "name": "updateCallWhitelist",
      "outputs": [
        {
          "internalType": "bool",
          "name": "",
          "type": "bool"
        }
      ],
      "stateMutability": "nonpayable",
      "type": "function"
    },
    {
      "inputs": [
        {
          "internalType": "address",
          "name": "_account",
          "type": "address"
        },
        {
          "internalType": "bool",
          "name": "_value",
          "type": "bool"
        }
      ],
      "name": "updateOwnerWhitelist",
      "outputs": [
        {
          "internalType": "bool",
          "name": "",
          "type": "bool"
        }
      ],
      "stateMutability": "nonpayable",
      "type": "function"
    }
  ],
  "bytecode": "0x608060405234801561001057600080fd5b5060018060003373ffffffffffffffffffffffffffffffffffffffff1673ffffffffffffffffffffffffffffffffffffffff16815260200190815260200160002060006101000a81548160ff021916908315150217905550611348806100776000396000f3fe608060405234801561001057600080fd5b506004361061007d5760003560e01c806376e4b67a1161005b57806376e4b67a146101125780637f9ec70b1461012e578063ce36ef7c1461015e578063da2126681461018e5761007d565b806342f1e1b2146100825780634edf6a50146100b257806370ae92d2146100e2575b600080fd5b61009c600480360381019061009791906109d9565b6101be565b6040516100a99190610eaf565b60405180910390f35b6100cc60048036038101906100c79190610935565b6102e6565b6040516100d99190610eaf565b60405180910390f35b6100fc60048036038101906100f79190610935565b610306565b6040516101099190611039565b60405180910390f35b61012c60048036038101906101279190610a15565b61031e565b005b6101486004803603810190610143919061095e565b610577565b6040516101559190610eca565b60405180910390f35b610178600480360381019061017391906109d9565b6105f2565b6040516101859190610eaf565b60405180910390f35b6101a860048036038101906101a39190610935565b61071a565b6040516101b59190610eaf565b60405180910390f35b6000600160003373ffffffffffffffffffffffffffffffffffffffff1673ffffffffffffffffffffffffffffffffffffffff16815260200190815260200160002060009054906101000a900460ff1661024c576040517f08c379a000000000000000000000000000000000000000000000000000000000815260040161024390610fd9565b60405180910390fd5b81600260008573ffffffffffffffffffffffffffffffffffffffff1673ffffffffffffffffffffffffffffffffffffffff16815260200190815260200160002060006101000a81548160ff0219169083151502179055507fe66720555e0995bca0a98e4f572cb0e7bf7a3e3aedcb2a9dc511cf946a19f1ff83836040516102d4929190610e86565b60405180910390a16001905092915050565b60026020528060005260406000206000915054906101000a900460ff1681565b60006020528060005260406000206000915090505481565b600160003373ffffffffffffffffffffffffffffffffffffffff1673ffffffffffffffffffffffffffffffffffffffff16815260200190815260200160002060009054906101000a900460ff166103aa576040517f08c379a00000000000000000000000000000000000000000000000000000000081526004016103a190610ff9565b60405180910390fd5b60006103b885858585610577565b90506000808673ffffffffffffffffffffffffffffffffffffffff1673ffffffffffffffffffffffffffffffffffffffff1681526020019081526020016000206000815480929190610409906111d0565b919050555061041985828861073a565b610458576040517f08c379a000000000000000000000000000000000000000000000000000000000815260040161044f90611019565b60405180910390fd5b600260008573ffffffffffffffffffffffffffffffffffffffff1673ffffffffffffffffffffffffffffffffffffffff16815260200190815260200160002060009054906101000a900460ff166104e4576040517f08c379a00000000000000000000000000000000000000000000000000000000081526004016104db90610f99565b60405180910390fd5b6104ef84848461077d565b61052e576040517f08c379a000000000000000000000000000000000000000000000000000000000815260040161052590610fb9565b60405180910390fd5b7fa44809876be7b0e3c1599dc7b3a9ef62dd9c43c0a951789d181c29e34a3575ce86868686868660405161056796959493929190610f2a565b60405180910390a1505050505050565b600030858585856000808b73ffffffffffffffffffffffffffffffffffffffff1673ffffffffffffffffffffffffffffffffffffffff168152602001908152602001600020546040516020016105d296959493929190610df4565b604051602081830303815290604052805190602001209050949350505050565b6000600160003373ffffffffffffffffffffffffffffffffffffffff1673ffffffffffffffffffffffffffffffffffffffff16815260200190815260200160002060009054906101000a900460ff16610680576040517f08c379a000000000000000000000000000000000000000000000000000000000815260040161067790610fd9565b60405180910390fd5b81600160008573ffffffffffffffffffffffffffffffffffffffff1673ffffffffffffffffffffffffffffffffffffffff16815260200190815260200160002060006101000a81548160ff0219169083151502179055507f0c53ebae9012fd6b3cfb2252c257640bace1dc4553398cc07faa5b19f6706d158383604051610708929190610e86565b60405180910390a16001905092915050565b60016020528060005260406000206000915054906101000a900460ff1681565b60008373ffffffffffffffffffffffffffffffffffffffff1661075d8484610795565b73ffffffffffffffffffffffffffffffffffffffff161490509392505050565b600080600083516020850186885af190509392505050565b60008060008060418551146107b05760009350505050610888565b6020850151925060408501519150606085015160001a9050601b8160ff1610156107e457601b816107e191906110f8565b90505b601b8160ff16141580156107fc5750601c8160ff1614155b1561080d5760009350505050610888565b6001866040516020016108209190610e60565b60405160208183030381529060405280519060200120828585604051600081526020016040526040516108569493929190610ee5565b6020604051602081039080840390855afa158015610878573d6000803e3d6000fd5b5050506020604051035193505050505b92915050565b60006108a161089c84611085565b611054565b9050828152602081018484840111156108b957600080fd5b6108c484828561118e565b509392505050565b6000813590506108db816112cd565b92915050565b6000813590506108f0816112e4565b92915050565b600082601f83011261090757600080fd5b813561091784826020860161088e565b91505092915050565b60008135905061092f816112fb565b92915050565b60006020828403121561094757600080fd5b6000610955848285016108cc565b91505092915050565b6000806000806080858703121561097457600080fd5b6000610982878288016108cc565b9450506020610993878288016108cc565b93505060406109a487828801610920565b925050606085013567ffffffffffffffff8111156109c157600080fd5b6109cd878288016108f6565b91505092959194509250565b600080604083850312156109ec57600080fd5b60006109fa858286016108cc565b9250506020610a0b858286016108e1565b9150509250929050565b600080600080600060a08688031215610a2d57600080fd5b600086013567ffffffffffffffff811115610a4757600080fd5b610a53888289016108f6565b9550506020610a64888289016108cc565b9450506040610a75888289016108cc565b9350506060610a8688828901610920565b925050608086013567ffffffffffffffff811115610aa357600080fd5b610aaf888289016108f6565b9150509295509295909350565b610ac58161112f565b82525050565b610adc610ad78261112f565b611219565b82525050565b610aeb81611141565b82525050565b610afa8161114d565b82525050565b610b11610b0c8261114d565b61122b565b82525050565b6000610b22826110b5565b610b2c81856110c0565b9350610b3c81856020860161119d565b610b45816112af565b840191505092915050565b6000610b5b826110b5565b610b6581856110d1565b9350610b7581856020860161119d565b80840191505092915050565b6000610b8e601c836110ed565b91507f19457468657265756d205369676e6564204d6573736167653a0a3332000000006000830152601c82019050919050565b6000610bce6038836110dc565b91507f56657269666965723a3a666f727761726420536d61727420436f6e747261637460008301527f2041646472657373204e6f742057686974656c697374656400000000000000006020830152604082019050919050565b6000610c346028836110dc565b91507f56657269666965723a3a666f72776172642070726f626c656d20696e2065786560008301527f6375746543616c6c0000000000000000000000000000000000000000000000006020830152604082019050919050565b6000610c9a6031836110dc565b91507f56657269666965723a3a75706461746557686974656c697374204163636f756e60008301527f74204e6f742057686974656c69737465640000000000000000000000000000006020830152604082019050919050565b6000610d00602f836110dc565b91507f56657269666965723a3a666f7277617264204f776e6572204163636f756e742060008301527f4e6f742057686974656c697374656400000000000000000000000000000000006020830152604082019050919050565b6000610d666031836110dc565b91507f56657269666965723a3a666f7277617264206d657373616765206973206e6f7460008301527f207369676e656420636f72726563746c790000000000000000000000000000006020830152604082019050919050565b610dc881611177565b82525050565b610ddf610dda82611177565b611247565b82525050565b610dee81611181565b82525050565b6000610e008289610acb565b601482019150610e108288610acb565b601482019150610e208287610acb565b601482019150610e308286610dce565b602082019150610e408285610b50565b9150610e4c8284610dce565b602082019150819050979650505050505050565b6000610e6b82610b81565b9150610e778284610b00565b60208201915081905092915050565b6000604082019050610e9b6000830185610abc565b610ea86020830184610ae2565b9392505050565b6000602082019050610ec46000830184610ae2565b92915050565b6000602082019050610edf6000830184610af1565b92915050565b6000608082019050610efa6000830187610af1565b610f076020830186610de5565b610f146040830185610af1565b610f216060830184610af1565b95945050505050565b600060c0820190508181036000830152610f448189610b17565b9050610f536020830188610abc565b610f606040830187610abc565b610f6d6060830186610dbf565b8181036080830152610f7f8185610b17565b9050610f8e60a0830184610af1565b979650505050505050565b60006020820190508181036000830152610fb281610bc1565b9050919050565b60006020820190508181036000830152610fd281610c27565b9050919050565b60006020820190508181036000830152610ff281610c8d565b9050919050565b6000602082019050818103600083015261101281610cf3565b9050919050565b6000602082019050818103600083015261103281610d59565b9050919050565b600060208201905061104e6000830184610dbf565b92915050565b6000604051905081810181811067ffffffffffffffff8211171561107b5761107a611280565b5b8060405250919050565b600067ffffffffffffffff8211156110a05761109f611280565b5b601f19601f8301169050602081019050919050565b600081519050919050565b600082825260208201905092915050565b600081905092915050565b600082825260208201905092915050565b600081905092915050565b600061110382611181565b915061110e83611181565b92508260ff0382111561112457611123611251565b5b828201905092915050565b600061113a82611157565b9050919050565b60008115159050919050565b6000819050919050565b600073ffffffffffffffffffffffffffffffffffffffff82169050919050565b6000819050919050565b600060ff82169050919050565b82818337600083830152505050565b60005b838110156111bb5780820151818401526020810190506111a0565b838111156111ca576000848401525b50505050565b60006111db82611177565b91507fffffffffffffffffffffffffffffffffffffffffffffffffffffffffffffffff82141561120e5761120d611251565b5b600182019050919050565b600061122482611235565b9050919050565b6000819050919050565b6000611240826112c0565b9050919050565b6000819050919050565b7f4e487b7100000000000000000000000000000000000000000000000000000000600052601160045260246000fd5b7f4e487b7100000000000000000000000000000000000000000000000000000000600052604160045260246000fd5b6000601f19601f8301169050919050565b60008160601b9050919050565b6112d68161112f565b81146112e157600080fd5b50565b6112ed81611141565b81146112f857600080fd5b50565b61130481611177565b811461130f57600080fd5b5056fea264697066735822122006e1d5924cdcbea19c71c12d4ec0778fae366ad81b8786c2f66d09222925c72164736f6c63430008000033",
  "linkReferences": {},
  "deployedLinkReferences": {}
}