{
  "contractName": "SetA",
  "abi": [
    {
      "inputs": [],
      "payable": false,
      "stateMutability": "nonpayable",
      "type": "constructor"
    },
    {
      "constant": true,
      "inputs": [],
      "name": "getA",
      "outputs": [
        {
          "internalType": "uint256",
          "name": "",
          "type": "uint256"
        }
      ],
      "payable": false,
      "stateMutability": "view",
      "type": "function"
    },
    {
      "constant": false,
      "inputs": [
        {
          "internalType": "uint256",
          "name": "a1",
          "type": "uint256"
        }
      ],
      "name": "setA",
      "outputs": [
        {
          "internalType": "uint256",
          "name": "",
          "type": "uint256"
        }
      ],
      "payable": true,
      "stateMutability": "payable",
      "type": "function"
    }
  ],
  "bytecode": "0x608060405234801561001057600080fd5b50600160008190555060e3806100276000396000f3fe60806040526004361060265760003560e01c8063d46300fd14602b578063ee919d50146053575b600080fd5b348015603657600080fd5b50603d6092565b6040518082815260200191505060405180910390f35b607c60048036036020811015606757600080fd5b8101908080359060200190929190505050609b565b6040518082815260200191505060405180910390f35b60008054905090565b600081600081905550600054905091905056fea265627a7a7231582087e48efe50672c36d6f5d0283ff6ffc2333816da2bd57ca65be0a6a0c79bb22f64736f6c63430005100032",
  "source": "pragma solidity >=0.4.22 <0.9.0;\r\n\r\ncontract SetA {\r\n\r\n    uint a;\r\n\r\n    constructor() public{\r\n        a=1;\r\n    }\r\n\r\n    function getA() public view returns(uint){\r\n        return a;\r\n    }\r\n\r\n    function setA(uint a1) public payable returns(uint){\r\n        a=a1;\r\n        return a;\r\n    }\r\n}\r\n",
  "sourcePath": "C:\\Users\\rymou\\IdeaProjects\\unicef\\ethereum-meta-transactions\\web3-meta-transactions\\contracts\\SetA.sol",
  "compiler": {
    "name": "solc",
    "version": "0.5.16+commit.9c3226ce.Emscripten.clang"
  },
  "schemaVersion": "3.1.0",
  "updatedAt": "2021-03-08T11:27:32.890Z",
  "networkType": "ethereum",
  "devdoc": {
    "methods": {}
  },
  "userdoc": {
    "methods": {}
  }
}