{
  "contractName": "Verifier",
  "abi": [
    {
      "constant": true,
      "inputs": [
        {
          "internalType": "bytes32",
          "name": "msgHash",
          "type": "bytes32"
        },
        {
          "internalType": "bytes",
          "name": "signature",
          "type": "bytes"
        }
      ],
      "name": "recoverAddr",
      "outputs": [
        {
          "internalType": "address",
          "name": "",
          "type": "address"
        }
      ],
      "payable": false,
      "stateMutability": "pure",
      "type": "function"
    },
    {
      "constant": true,
      "inputs": [
        {
          "internalType": "address",
          "name": "_addr",
          "type": "address"
        },
        {
          "internalType": "bytes32",
          "name": "msgHash",
          "type": "bytes32"
        },
        {
          "internalType": "bytes",
          "name": "signature",
          "type": "bytes"
        }
      ],
      "name": "isSigned",
      "outputs": [
        {
          "internalType": "bool",
          "name": "",
          "type": "bool"
        }
      ],
      "payable": false,
      "stateMutability": "pure",
      "type": "function"
    }
  ],
  "bytecode": "0x608060405234801561001057600080fd5b506103ab806100206000396000f3fe608060405234801561001057600080fd5b50600436106100365760003560e01c80633309e7911461003b578063eaf5815a14610138575b600080fd5b61011e6004803603606081101561005157600080fd5b81019080803573ffffffffffffffffffffffffffffffffffffffff169060200190929190803590602001909291908035906020019064010000000081111561009857600080fd5b8201836020820111156100aa57600080fd5b803590602001918460018302840111640100000000831117156100cc57600080fd5b91908080601f016020809104026020016040519081016040528093929190818152602001838380828437600081840152601f19601f82011690508083019250505050505050919291929050505061023d565b604051808215151515815260200191505060405180910390f35b6101fb6004803603604081101561014e57600080fd5b81019080803590602001909291908035906020019064010000000081111561017557600080fd5b82018360208201111561018757600080fd5b803590602001918460018302840111640100000000831117156101a957600080fd5b91908080601f016020809104026020016040519081016040528093929190818152602001838380828437600081840152601f19601f820116905080830192505050505050509192919290505050610280565b604051808273ffffffffffffffffffffffffffffffffffffffff1673ffffffffffffffffffffffffffffffffffffffff16815260200191505060405180910390f35b60008373ffffffffffffffffffffffffffffffffffffffff166102608484610294565b73ffffffffffffffffffffffffffffffffffffffff161490509392505050565b600061028c8383610294565b905092915050565b60008060008060418551146102af5760009350505050610370565b6020850151925060408501519150606085015160001a9050601b8160ff1610156102da57601b810190505b601b8160ff16141580156102f25750601c8160ff1614155b156103035760009350505050610370565b60018682858560405160008152602001604052604051808581526020018460ff1660ff1681526020018381526020018281526020019450505050506020604051602081039080840390855afa158015610360573d6000803e3d6000fd5b5050506020604051035193505050505b9291505056fea265627a7a72315820d27b5f5f690badfa743f96c99138c0152f0347a4aac7fc5653cd30b5f0e96bed64736f6c63430005100032",
  "source": "pragma solidity >=0.4.22 <0.9.0;\r\n\r\ncontract Verifier {\r\n\r\n    function recoverAddr(bytes32 msgHash, bytes memory signature) public pure returns (address) {\r\n        return recover(msgHash, signature);\r\n    }\r\n\r\n    function isSigned(address _addr, bytes32 msgHash, bytes memory signature) public pure returns (bool) {\r\n        return recover(msgHash, signature) == _addr;\r\n    }\r\n\r\n    function recover(bytes32 hash, bytes memory signature)\r\n    internal\r\n    pure\r\n    returns (address)\r\n    {\r\n        bytes32 r;\r\n        bytes32 s;\r\n        uint8 v;\r\n\r\n        // Check the signature length\r\n        if (signature.length != 65) {\r\n            return (address(0));\r\n        }\r\n\r\n        // Divide the signature in r, s and v variables with inline assembly.\r\n        assembly {\r\n            r := mload(add(signature, 0x20))\r\n            s := mload(add(signature, 0x40))\r\n            v := byte(0, mload(add(signature, 0x60)))\r\n        }\r\n\r\n        // Version of signature should be 27 or 28, but 0 and 1 are also possible versions\r\n        if (v < 27) {\r\n            v += 27;\r\n        }\r\n\r\n        // If the version is correct return the signer address\r\n        if (v != 27 && v != 28) {\r\n            return (address(0));\r\n        } else {\r\n            // solium-disable-next-line arg-overflow\r\n            return ecrecover(hash, v, r, s);\r\n        }\r\n    }\r\n\r\n    /**\r\n      * toEthSignedMessageHash\r\n      * @dev prefix a bytes32 value with \"\\x19Ethereum Signed Message:\"\r\n      * and hash the result\r\n      */\r\n    function toEthSignedMessageHash(bytes32 hash)\r\n    internal\r\n    pure\r\n    returns (bytes32)\r\n    {\r\n        return keccak256(\r\n            abi.encodePacked(\"\\x19Ethereum Signed Message:\\n32\", hash)\r\n        );\r\n    }\r\n}\r\n",
  "sourcePath": "C:\\Users\\rymou\\IdeaProjects\\unicef\\ethereum-meta-transactions\\web3-meta-transactions\\contracts\\Verifier.sol",
  "compiler": {
    "name": "solc",
    "version": "0.5.16+commit.9c3226ce.Emscripten.clang"
  },
  "schemaVersion": "3.1.0",
  "updatedAt": "2021-03-10T23:21:20.255Z",
  "networkType": "ethereum",
  "devdoc": {
    "methods": {}
  },
  "userdoc": {
    "methods": {}
  }
}